:03000000020FAD3F
:0C0FAD00787FE4F6D8FD758128020FF46F
:1011C2000A0BC0F9A4B0999282F880980415000025
:0511D20000000109010D
:101177007FC87EC87D64EED39400400CEDD3940005
:0A11870040031D80F71E80EEDFEC30
:01119100223B
:1011AC005389F8438901758CF1758A99D28C308DED
:0611BC00FDC28DC28C2271
:101039007CFFC2972091027C092092027C082093B0
:10104900027C07D297C2962091027C062092027CEC
:10105900052093027C04D296C2952091027C03203C
:1010690092027C022093027C01D295C294209202C2
:101079007C0AD294121177ECF4600CECB508037F6A
:0C10890000228C08AF04227508FF7F00D5
:011095002238
:101192007C00AF03AE02120B6F7C007D0A120B6F54
:0211A200AF0597
:0811A400740B2FF8E6F5A02200
:1010E900AB07AA0612119BD2831211ACC2837D0AE7
:1010F900121192D2821211ACC2827D64121192D263
:10110900811211ACC281AE02AF037C037DE81211DA
:0911190098D2801211ACC28022B0
:0711D800D2AFD288D2A82299
:10115A0053890F438910E50AB40105B2B7E4F50AC9
:0D116A00E523FFEFF58DE524F58BD2AB22D8
:03000300020C08E4
:100C0800C0E0C0F0C083C082C0D075D000C000C0B2
:0D0C180001C002C003C004C005C006C00733
:100C2500E5097003020F84AC25AD26EC120AA38FEB
:100C3500188E178D168C15C3E52694F0E52564806E
:100C450094A34025D3E526940FE525648094A75009
:100C550018AB18AA17A916A815C000C001C002C074
:100C650003E4FFFE7DE0020D92C3E5269460E525D1
:100C7500648094A24024E52694F0E525648094A33D
:100C85005018AB18AA17A916A815C000C001C002B4
:100C9500C003E4FFFE7DC0020D92C3E52694A4E5E2
:100CA500256480949F4025E5269460E5256480941D
:100CB500A25019AB18AA17A916A815C000C001C0E3
:100CC50002C0037F667E667DA6020D92C3E526946B
:100CD50058E5256480949B4025E52694A4E5256484
:100CE50080949F5019AB18AA17A916A815C000C063
:100CF50001C002C0037F9A7E997D99020D92C3E5DA
:100D0500269464E525648094994024E5269458E565
:100D1500256480949B5018AB18AA17A916A815C06E
:100D250000C001C002C0037FCD7ECC7D4C805EC378
:100D3500E526947CE525648094954024E526946415
:100D4500E525648094995018AB18AA17A916A8151B
:100D5500C000C001C002C0037F9A7E997D19802D15
:100D6500C3E526948EE525648094924025E5269476
:100D75007CE525648094955019AB18AA17A916A887
:100D850015C000C001C002C003E4FFFEFD7C3F02A8
:100D95000E96C3E52694A0E5256480948F4027E54B
:100DA50026948EE52564809492501BAB18AA17A94A
:100DB50016A815C000C001C002C0037FCD7ECC7D42
:100DC500CC7C3E020E96C3E52694E4E5256480942A
:100DD5008C4027E52694A0E5256480948F501BABB5
:100DE50018AA17A916A815C000C001C002C0037F24
:100DF5009A7E997D997C3E020E96C3E52694C4E5BC
:100E050025648094894026E52694E4E5256480944C
:100E15008C501AAB18AA17A916A815C000C001C096
:100E250002C0037F147EAE7D477C3E8064C3E52609
:100E350094DCE525648094854026E52694C4E52563
:100E450064809489501AAB18AA17A916A815C00072
:100E5500C001C002C0037F237EDB7DF97C3D80316C
:100E6500C3E52694EEE52564809482403AE5269410
:100E7500DCE52564809485502EAB18AA17A916A821
:100E850015C000C001C002C0037F537E967DA17CC2
:100E95003D1208F8D003D002D001D0001208078F08
:100EA500188E178D168C15E4FFFEFD7C40AB18AA35
:100EB50017A916A8151208F8A804A905AA06AB07CC
:100EC500E4FFFE7D807C3F120A018F1C8E1B8D1A6C
:100ED5008C197F007E247D747C49AB1CAA1BA91A42
:100EE500A8191208F87B487AE1798A783F120A0135
:100EF5008F1C8E1B8D1A8C19E4FBFA7980784712AA
:100F05000A01120ADC8E278F28E4FBFA79807847DC
:100F1500AF1CAE1BAD1AAC19120A01C004C005C046
:100F250006C007AC27AD28EC120AA3A804A905AA98
:100F350006AB07D007D006D005D0041208038F22D0
:100F45008E218D208C1F0528E52870020527852711
:100F55001DF51EE4FFFE7D807C47AB22AA21A9205A
:100F6500A81F1208F8120ADC8E238F24C3E49524E7
:100F7500F524E49523F52312115A750900800975A6
:0D0F85000901752500752600B28E12117746
:100F9200D007D006D005D004D003D002D001D000B3
:0B0FA200D0D0D082D083D0F0D0E0325D
:03001B00021122AD
:10112200C0E0C0D075D000C007E5281528700215B0
:1011320027E52845277014B2B7851D27851E28E5A7
:1011420023FFEFF58DE524F58B8006758D00758BF9
:0811520000D007D0D0D0E0323C
:10109600750A011211D875900FD297D296D295D2B1
:1010A60094C2B7121039AB07EB602FAE25AF267C82
:1010B600037DE8BB0A10120B6F7E007F0A120B5DE0
:1010C6008E258F268014120B6F7E007F0A120B5D11
:1010D6007C00EF2BF526EC3EF525AF26AE2512104B
:0310E600E980C0DE
:10080000020B48E86480F8E933E83360110460F0D3
:10081000ED33EC337009E8FCE9FDEAFEEBFF22045E
:1008200060DED3EB9FEA9EE99DE8C2E78CF0C2F759
:1008300095F0400CE8CCF8E9CDF9EACEFAEBCFFB25
:10084000120B1385D0F05804700320D5B3E8047060
:10085000075002B2D5020B5292D5EC0460F7E4CCFB
:10086000C0E0C398F8603B94186008400DD0E0FBEE
:10087000020B2AE4FBFAC9FC8028E830E406E4C94C
:10088000FBE4CAFCE830E305E4C9CACBFCE8540742
:100890006010F8C3E913F9EA13FAEB13FBEC13FC4D
:1008A000D8F130F52FC3E49CFCEF9BFFEE9AFEEDF0
:1008B00099FDD0E0FBEF4E4D4C701222DB03020B92
:1008C0004FEC2CFCEF33FFEE33FEED33FDED30E764
:1008D000EB020B2AEF2BFFEE3AFEED39FDD0E0FBE9
:1008E00050130BBB0003020B52ED13FDEE13FEEF92
:0808F00013FFEC13FC020B2ABC
:1008F800EC4D6011E8497017ED33EC3304600DE4FA
:10090800FCFFFEFD22E933E8330470F8020B4812BD
:100918000B1358046009E4CC2481500628500902BE
:100928000B52284003020B4FC0E0EB4A7044B980D9
:1009380006D0E0FB020B3EEF4E701CBD8008EBFFBB
:10094800EAFEE9FD80EBE98DF0A4FEE5F00209E19D
:10095800E9CDF9EAFEEBFFEF89F0A4FCE5F0CE89DA
:10096800F0A42EFFE435F0CD89F0A42DFEE435F097
:100978008067EF4E7005BD80D780C3EF8BF0A4ACC5
:10098800F0EE8BF0A42CFCE435F0F8EF8AF0A42C00
:10099800E5F038FCE433CB8DF0A42CFCE5F03BF813
:1009A800EE8AF0A42CFCE5F038F8E433CF89F0A403
:1009B8002CFCE5F038CF3400CE89F0A42FFFE5F009
:1009C8003EFEE433C98DF0A42EFEE5F039CD8AF061
:1009D800A42FFFE5F03EFEE43DFD33D0E0FB5007D9
:1009E8000BBB000F020B52EC2CFCEF33FFEE33FE77
:0609F800ED33FD020B2AA5
:1009FE00020B52EC5D046005E859047003020B48CB
:100A0E00120B13580460F6EC4860F2EC7004FDFE15
:100A1E00FF22C860DB2481C85009C39860025006CB
:100A2E00020B4F9850CAF582E9294B4A7005AB82EA
:100A3E00020B3E75F0007C1A7880C3EF9BEE9AEDA8
:100A4E0099400DC3EF9BFFEE9AFEED99FDE842F043
:100A5E00DC23ACF0D0E0FFD0E0FED0E0FDAB822096
:100A6E00E7101BEB60BAEC2CFCEF33FFEE33FEED20
:100A7E0033FD020B2AE803F830E705C0F075F000ED
:100A8E00EF2FFFEE33FEED33FD40B830E7C280AA04
:100A9E0075F020800E75F010800575F0087D007ED3
:100AAE00007F003392D530D503120BA5EC334010E6
:100ABE00EF33FFEE33FEED33FDEC33FCD5F0ED22DC
:0E0ACE00E5F0247EA2D513CC92E7CDCEFF2218
:100ADC00EDD2E7CD33EC3392D524814006E4FFFE12
:100AEC00FDFC22FCE4CFCECDCC24E0501174FF8071
:100AFC00EDC3CC13CCCD13CDCE13CECF13CF04700E
:070B0C00F030D5DE020BA55D
:100B1300E9D2E7C933E833F892D5EDD2E7CD33EC28
:070B230033FC5002B2D522A1
:100B2A00EC30E7100FBF000C0EBE00080DBD00042C
:100B3A000BEB6014A2D5EB13FCED92E7FD2274FFD8
:100B4A00FCFDFEFF22E480F8A2D574FF13FC7D8031
:030B5A00E480EF45
:100FB900021096E493A3F8E493A34003F68001F2A8
:100FC90008DFF48029E493A3F85407240CC8C33339
:100FD900C4540F4420C8834004F456800146F6DF08
:100FE900E4800B01020408102040809011C2E47EC5
:100FF900019360BCA3FF543F30E509541FFEE493FD
:10100900A360010ECF54C025E060A840B8E493A3C3
:10101900FAE493A3F8E493A3C8C582C8CAC583CAEE
:10102900F0A3C8C582C8CAC583CADFE9DEE780BEA6
:0111D7000017
:100B5D00EF8DF0A4A8F0CF8CF0A428CE8DF0A42EAC
:020B6D00FE2266
:100B6F00C2D5EC30E709B2D5E4C39DFDE49CFCEEA1
:100B7F0030E715B2D5E4C39FFFE49EFE120BB3C35B
:100B8F00E49DFDE49CFC8003120BB330D507C3E456
:060B9F009FFFE49EFE2210
:0E0BA500C3E49FFFE49EFEE49DFDE49CFC2261
:100BB300BC000BBE0029EF8DF084FFADF022E4CC26
:100BC300F875F008EF2FFFEE33FEEC33FCEE9DECEF
:100BD300984005FCEE9DFE0FD5F0E9E4CEFD22ED35
:100BE300F8F5F0EE8420D21CFEADF075F008EF2F7F
:100BF300FFED33FD4007985006D5F0F222C398FD70
:050C03000FD5F0EA220C
:00000001FF
